{
  "_format": "hh-sol-artifact-1",
  "contractName": "Raffle",
  "sourceName": "contracts/Raffle.sol",
  "abi": [
    {
      "inputs": [
        {
          "internalType": "address",
          "name": "vrfCoordinatorV2",
          "type": "address"
        },
        {
          "internalType": "uint256",
          "name": "enteranceFee",
          "type": "uint256"
        },
        {
          "internalType": "bytes32",
          "name": "gasLane",
          "type": "bytes32"
        },
        {
          "internalType": "uint64",
          "name": "subscriptionId",
          "type": "uint64"
        },
        {
          "internalType": "uint32",
          "name": "callbackGasiLimit",
          "type": "uint32"
        },
        {
          "internalType": "uint256",
          "name": "interval",
          "type": "uint256"
        }
      ],
      "stateMutability": "nonpayable",
      "type": "constructor"
    },
    {
      "inputs": [
        {
          "internalType": "address",
          "name": "have",
          "type": "address"
        },
        {
          "internalType": "address",
          "name": "want",
          "type": "address"
        }
      ],
      "name": "OnlyCoordinatorCanFulfill",
      "type": "error"
    },
    {
      "inputs": [],
      "name": "OnlySimulatedBackend",
      "type": "error"
    },
    {
      "inputs": [],
      "name": "Raffle__LotteryClosed",
      "type": "error"
    },
    {
      "inputs": [],
      "name": "Raffle__NotEnoughETHEntered",
      "type": "error"
    },
    {
      "inputs": [],
      "name": "Raffle__TransferFailed",
      "type": "error"
    },
    {
      "inputs": [
        {
          "internalType": "uint256",
          "name": "currentBalance",
          "type": "uint256"
        },
        {
          "internalType": "uint256",
          "name": "numPlayers",
          "type": "uint256"
        },
        {
          "internalType": "uint256",
          "name": "raffleState",
          "type": "uint256"
        }
      ],
      "name": "Raffle__UpkeepNotNeeded",
      "type": "error"
    },
    {
      "anonymous": false,
      "inputs": [
        {
          "indexed": true,
          "internalType": "address",
          "name": "player",
          "type": "address"
        }
      ],
      "name": "RaffleEnter",
      "type": "event"
    },
    {
      "anonymous": false,
      "inputs": [
        {
          "indexed": true,
          "internalType": "uint256",
          "name": "requestId",
          "type": "uint256"
        }
      ],
      "name": "RequestedRaffleWinner",
      "type": "event"
    },
    {
      "anonymous": false,
      "inputs": [
        {
          "indexed": true,
          "internalType": "address",
          "name": "winner",
          "type": "address"
        }
      ],
      "name": "WinnerPicked",
      "type": "event"
    },
    {
      "inputs": [
        {
          "internalType": "bytes",
          "name": "",
          "type": "bytes"
        }
      ],
      "name": "checkUpkeep",
      "outputs": [
        {
          "internalType": "bool",
          "name": "upkeepNeeded",
          "type": "bool"
        },
        {
          "internalType": "bytes",
          "name": "",
          "type": "bytes"
        }
      ],
      "stateMutability": "nonpayable",
      "type": "function"
    },
    {
      "inputs": [],
      "name": "enterRaffle",
      "outputs": [],
      "stateMutability": "payable",
      "type": "function"
    },
    {
      "inputs": [],
      "name": "getEnteranceFee",
      "outputs": [
        {
          "internalType": "uint256",
          "name": "",
          "type": "uint256"
        }
      ],
      "stateMutability": "view",
      "type": "function"
    },
    {
      "inputs": [],
      "name": "getInterval",
      "outputs": [
        {
          "internalType": "uint256",
          "name": "",
          "type": "uint256"
        }
      ],
      "stateMutability": "view",
      "type": "function"
    },
    {
      "inputs": [],
      "name": "getLatestTimeStamp",
      "outputs": [
        {
          "internalType": "uint256",
          "name": "",
          "type": "uint256"
        }
      ],
      "stateMutability": "view",
      "type": "function"
    },
    {
      "inputs": [],
      "name": "getNumOfPlayers",
      "outputs": [
        {
          "internalType": "uint256",
          "name": "",
          "type": "uint256"
        }
      ],
      "stateMutability": "view",
      "type": "function"
    },
    {
      "inputs": [],
      "name": "getNumWords",
      "outputs": [
        {
          "internalType": "uint256",
          "name": "",
          "type": "uint256"
        }
      ],
      "stateMutability": "pure",
      "type": "function"
    },
    {
      "inputs": [
        {
          "internalType": "uint256",
          "name": "index",
          "type": "uint256"
        }
      ],
      "name": "getPlayer",
      "outputs": [
        {
          "internalType": "address payable",
          "name": "",
          "type": "address"
        }
      ],
      "stateMutability": "view",
      "type": "function"
    },
    {
      "inputs": [],
      "name": "getRaffleState",
      "outputs": [
        {
          "internalType": "enum Raffle.RaffleState",
          "name": "",
          "type": "uint8"
        }
      ],
      "stateMutability": "view",
      "type": "function"
    },
    {
      "inputs": [],
      "name": "getRecenetWinner",
      "outputs": [
        {
          "internalType": "address",
          "name": "",
          "type": "address"
        }
      ],
      "stateMutability": "view",
      "type": "function"
    },
    {
      "inputs": [],
      "name": "getRequestConfirmations",
      "outputs": [
        {
          "internalType": "uint256",
          "name": "",
          "type": "uint256"
        }
      ],
      "stateMutability": "pure",
      "type": "function"
    },
    {
      "inputs": [
        {
          "internalType": "bytes",
          "name": "",
          "type": "bytes"
        }
      ],
      "name": "performUpkeep",
      "outputs": [],
      "stateMutability": "nonpayable",
      "type": "function"
    },
    {
      "inputs": [
        {
          "internalType": "uint256",
          "name": "requestId",
          "type": "uint256"
        },
        {
          "internalType": "uint256[]",
          "name": "randomWords",
          "type": "uint256[]"
        }
      ],
      "name": "rawFulfillRandomWords",
      "outputs": [],
      "stateMutability": "nonpayable",
      "type": "function"
    }
  ],
  "bytecode": "0x6101606040523480156200001257600080fd5b506040516200183e3803806200183e833981810160405281019062000038919062000294565b858073ffffffffffffffffffffffffffffffffffffffff1660808173ffffffffffffffffffffffffffffffffffffffff1681525050508460a081815250508573ffffffffffffffffffffffffffffffffffffffff1660c08173ffffffffffffffffffffffffffffffffffffffff16815250508360e081815250508267ffffffffffffffff166101008167ffffffffffffffff16815250508163ffffffff166101208163ffffffff16815250506000600160146101000a81548160ff021916908360018111156200010d576200010c62000330565b5b0217905550426002819055508061014081815250505050505050506200035f565b600080fd5b600073ffffffffffffffffffffffffffffffffffffffff82169050919050565b6000620001608262000133565b9050919050565b620001728162000153565b81146200017e57600080fd5b50565b600081519050620001928162000167565b92915050565b6000819050919050565b620001ad8162000198565b8114620001b957600080fd5b50565b600081519050620001cd81620001a2565b92915050565b6000819050919050565b620001e881620001d3565b8114620001f457600080fd5b50565b6000815190506200020881620001dd565b92915050565b600067ffffffffffffffff82169050919050565b6200022d816200020e565b81146200023957600080fd5b50565b6000815190506200024d8162000222565b92915050565b600063ffffffff82169050919050565b6200026e8162000253565b81146200027a57600080fd5b50565b6000815190506200028e8162000263565b92915050565b60008060008060008060c08789031215620002b457620002b36200012e565b5b6000620002c489828a0162000181565b9650506020620002d789828a01620001bc565b9550506040620002ea89828a01620001f7565b9450506060620002fd89828a016200023c565b93505060806200031089828a016200027d565b92505060a06200032389828a01620001bc565b9150509295509295509295565b7f4e487b7100000000000000000000000000000000000000000000000000000000600052602160045260246000fd5b60805160a05160c05160e05161010051610120516101405161146f620003cf600039600081816107c901526108370152600061067d0152600061065a01526000610639015260006105fd0152600081816103cf015261073a01526000818161030f0152610363015261146f6000f3fe6080604052600436106100c25760003560e01c806353a2c19a1161007f5780636e04ff0d116100595780636e04ff0d1461022557806391ad27b414610263578063b7a832af1461028e578063e55ae4e8146102b9576100c2565b806353a2c19a146101a4578063565429de146101cf5780635f1b0fd8146101fa576100c2565b8063115cbaf5146100c75780631fe543e3146100f25780632cfcc5391461011b578063320229eb146101255780634585e33b14610150578063535bf50f14610179575b600080fd5b3480156100d357600080fd5b506100dc6102f6565b6040516100e99190610c1b565b60405180910390f35b3480156100fe57600080fd5b5061011960048036038101906101149190610dd9565b61030d565b005b6101236103cd565b005b34801561013157600080fd5b5061013a61053c565b6040516101479190610e44565b60405180910390f35b34801561015c57600080fd5b5061017760048036038101906101729190610eba565b610546565b005b34801561018557600080fd5b5061018e610736565b60405161019b9190610e44565b60405180910390f35b3480156101b057600080fd5b506101b961075e565b6040516101c69190610e44565b60405180910390f35b3480156101db57600080fd5b506101e461076d565b6040516101f19190610e44565b60405180910390f35b34801561020657600080fd5b5061020f610779565b60405161021c9190610e44565b60405180910390f35b34801561023157600080fd5b5061024c60048036038101906102479190610fbc565b610786565b60405161025a92919061109f565b60405180910390f35b34801561026f57600080fd5b50610278610833565b6040516102859190610e44565b60405180910390f35b34801561029a57600080fd5b506102a361085b565b6040516102b09190611110565b60405180910390f35b3480156102c557600080fd5b506102e060048036038101906102db919061112b565b610885565b6040516102ed9190611179565b60405180910390f35b6000600160149054906101000a900460ff16905090565b7f000000000000000000000000000000000000000000000000000000000000000073ffffffffffffffffffffffffffffffffffffffff163373ffffffffffffffffffffffffffffffffffffffff16146103bf57337f00000000000000000000000000000000000000000000000000000000000000006040517f1cf993f40000000000000000000000000000000000000000000000000000000081526004016103b6929190611194565b60405180910390fd5b6103c982826108cc565b5050565b7f0000000000000000000000000000000000000000000000000000000000000000341015610427576040517fbd4e069500000000000000000000000000000000000000000000000000000000815260040160405180910390fd5b6000600181111561043b5761043a610ba4565b5b600160149054906101000a900460ff16600181111561045d5761045c610ba4565b5b14610494576040517fdae20e8c00000000000000000000000000000000000000000000000000000000815260040160405180910390fd5b6000339080600181540180825580915050600190039060005260206000200160009091909190916101000a81548173ffffffffffffffffffffffffffffffffffffffff021916908373ffffffffffffffffffffffffffffffffffffffff1602179055503373ffffffffffffffffffffffffffffffffffffffff167f0805e1d667bddb8a95f0f09880cf94f403fb596ce79928d9f29b74203ba284d460405160405180910390a2565b6000600254905090565b600061056060405180602001604052806000815250610786565b509050806105cf5747600080549050600160149054906101000a900460ff16600181111561059157610590610ba4565b5b6040517f584327aa0000000000000000000000000000000000000000000000000000000081526004016105c6939291906111bd565b60405180910390fd5b60018060146101000a81548160ff021916908360018111156105f4576105f3610ba4565b5b021790555060007f000000000000000000000000000000000000000000000000000000000000000073ffffffffffffffffffffffffffffffffffffffff16635d3b1d307f00000000000000000000000000000000000000000000000000000000000000007f000000000000000000000000000000000000000000000000000000000000000060037f000000000000000000000000000000000000000000000000000000000000000060016040518663ffffffff1660e01b81526004016106be95949392919061126c565b6020604051808303816000875af11580156106dd573d6000803e3d6000fd5b505050506040513d601f19601f8201168201806040525081019061070191906112d4565b9050807fcd6e45c8998311cab7e9d4385596cac867e20a0587194b954fa3a731c93ce78b60405160405180910390a250505050565b60007f0000000000000000000000000000000000000000000000000000000000000000905090565b6000600163ffffffff16905090565b60008080549050905090565b6000600361ffff16905090565b600060606000600160149054906101000a900460ff1660018111156107ae576107ad610ba4565b5b600060018111156107c2576107c1610ba4565b5b14905060007f0000000000000000000000000000000000000000000000000000000000000000600254426107f69190611330565b119050600080600080549050119050600080471190508380156108165750825b801561081f5750815b80156108285750805b955050505050915091565b60007f0000000000000000000000000000000000000000000000000000000000000000905090565b6000600160009054906101000a900473ffffffffffffffffffffffffffffffffffffffff16905090565b600080828154811061089a57610899611364565b5b9060005260206000200160009054906101000a900473ffffffffffffffffffffffffffffffffffffffff169050919050565b60008080549050826000815181106108e7576108e6611364565b5b60200260200101516108f991906113c2565b905060008082815481106109105761090f611364565b5b9060005260206000200160009054906101000a900473ffffffffffffffffffffffffffffffffffffffff16905080600160006101000a81548173ffffffffffffffffffffffffffffffffffffffff021916908373ffffffffffffffffffffffffffffffffffffffff1602179055506000600160146101000a81548160ff021916908360018111156109a4576109a3610ba4565b5b0217905550600067ffffffffffffffff8111156109c4576109c3610c96565b5b6040519080825280602002602001820160405280156109f25781602001602082028036833780820191505090505b5060009080519060200190610a08929190610afd565b504260028190555060008173ffffffffffffffffffffffffffffffffffffffff1647604051610a3690611424565b60006040518083038185875af1925050503d8060008114610a73576040519150601f19603f3d011682016040523d82523d6000602084013e610a78565b606091505b5050905080610ab3576040517fa1d04b3900000000000000000000000000000000000000000000000000000000815260040160405180910390fd5b8173ffffffffffffffffffffffffffffffffffffffff167f5b690ec4a06fe979403046eaeea5b3ce38524683c3001f662c8b5a829632f7df60405160405180910390a25050505050565b828054828255906000526020600020908101928215610b76579160200282015b82811115610b755782518260006101000a81548173ffffffffffffffffffffffffffffffffffffffff021916908373ffffffffffffffffffffffffffffffffffffffff16021790555091602001919060010190610b1d565b5b509050610b839190610b87565b5090565b5b80821115610ba0576000816000905550600101610b88565b5090565b7f4e487b7100000000000000000000000000000000000000000000000000000000600052602160045260246000fd5b60028110610be457610be3610ba4565b5b50565b6000819050610bf582610bd3565b919050565b6000610c0582610be7565b9050919050565b610c1581610bfa565b82525050565b6000602082019050610c306000830184610c0c565b92915050565b6000604051905090565b600080fd5b600080fd5b6000819050919050565b610c5d81610c4a565b8114610c6857600080fd5b50565b600081359050610c7a81610c54565b92915050565b600080fd5b6000601f19601f8301169050919050565b7f4e487b7100000000000000000000000000000000000000000000000000000000600052604160045260246000fd5b610cce82610c85565b810181811067ffffffffffffffff82111715610ced57610cec610c96565b5b80604052505050565b6000610d00610c36565b9050610d0c8282610cc5565b919050565b600067ffffffffffffffff821115610d2c57610d2b610c96565b5b602082029050602081019050919050565b600080fd5b6000610d55610d5084610d11565b610cf6565b90508083825260208201905060208402830185811115610d7857610d77610d3d565b5b835b81811015610da15780610d8d8882610c6b565b845260208401935050602081019050610d7a565b5050509392505050565b600082601f830112610dc057610dbf610c80565b5b8135610dd0848260208601610d42565b91505092915050565b60008060408385031215610df057610def610c40565b5b6000610dfe85828601610c6b565b925050602083013567ffffffffffffffff811115610e1f57610e1e610c45565b5b610e2b85828601610dab565b9150509250929050565b610e3e81610c4a565b82525050565b6000602082019050610e596000830184610e35565b92915050565b600080fd5b60008083601f840112610e7a57610e79610c80565b5b8235905067ffffffffffffffff811115610e9757610e96610e5f565b5b602083019150836001820283011115610eb357610eb2610d3d565b5b9250929050565b60008060208385031215610ed157610ed0610c40565b5b600083013567ffffffffffffffff811115610eef57610eee610c45565b5b610efb85828601610e64565b92509250509250929050565b600080fd5b600067ffffffffffffffff821115610f2757610f26610c96565b5b610f3082610c85565b9050602081019050919050565b82818337600083830152505050565b6000610f5f610f5a84610f0c565b610cf6565b905082815260208101848484011115610f7b57610f7a610f07565b5b610f86848285610f3d565b509392505050565b600082601f830112610fa357610fa2610c80565b5b8135610fb3848260208601610f4c565b91505092915050565b600060208284031215610fd257610fd1610c40565b5b600082013567ffffffffffffffff811115610ff057610fef610c45565b5b610ffc84828501610f8e565b91505092915050565b60008115159050919050565b61101a81611005565b82525050565b600081519050919050565b600082825260208201905092915050565b60005b8381101561105a57808201518184015260208101905061103f565b60008484015250505050565b600061107182611020565b61107b818561102b565b935061108b81856020860161103c565b61109481610c85565b840191505092915050565b60006040820190506110b46000830185611011565b81810360208301526110c68184611066565b90509392505050565b600073ffffffffffffffffffffffffffffffffffffffff82169050919050565b60006110fa826110cf565b9050919050565b61110a816110ef565b82525050565b60006020820190506111256000830184611101565b92915050565b60006020828403121561114157611140610c40565b5b600061114f84828501610c6b565b91505092915050565b6000611163826110cf565b9050919050565b61117381611158565b82525050565b600060208201905061118e600083018461116a565b92915050565b60006040820190506111a96000830185611101565b6111b66020830184611101565b9392505050565b60006060820190506111d26000830186610e35565b6111df6020830185610e35565b6111ec6040830184610e35565b949350505050565b6000819050919050565b611207816111f4565b82525050565b600067ffffffffffffffff82169050919050565b61122a8161120d565b82525050565b600061ffff82169050919050565b61124781611230565b82525050565b600063ffffffff82169050919050565b6112668161124d565b82525050565b600060a08201905061128160008301886111fe565b61128e6020830187611221565b61129b604083018661123e565b6112a8606083018561125d565b6112b5608083018461125d565b9695505050505050565b6000815190506112ce81610c54565b92915050565b6000602082840312156112ea576112e9610c40565b5b60006112f8848285016112bf565b91505092915050565b7f4e487b7100000000000000000000000000000000000000000000000000000000600052601160045260246000fd5b600061133b82610c4a565b915061134683610c4a565b925082820390508181111561135e5761135d611301565b5b92915050565b7f4e487b7100000000000000000000000000000000000000000000000000000000600052603260045260246000fd5b7f4e487b7100000000000000000000000000000000000000000000000000000000600052601260045260246000fd5b60006113cd82610c4a565b91506113d883610c4a565b9250826113e8576113e7611393565b5b828206905092915050565b600081905092915050565b50565b600061140e6000836113f3565b9150611419826113fe565b600082019050919050565b600061142f82611401565b915081905091905056fea26469706673582212205affd260650be0b22adbb1cc87065bc32ced5eab464beb55ce7c98e0533d3e5364736f6c63430008130033",
  "linkReferences": {},
  "deployedLinkReferences": {}
}