{
  "_format": "hh-sol-artifact-1",
  "contractName": "Raffle",
  "sourceName": "contracts/Raffle.sol",
  "abi": [
    {
      "inputs": [
        {
          "internalType": "address",
          "name": "vrfCoordinatorV2",
          "type": "address"
        },
        {
          "internalType": "uint256",
          "name": "enteranceFee",
          "type": "uint256"
        },
        {
          "internalType": "bytes32",
          "name": "gasLane",
          "type": "bytes32"
        },
        {
          "internalType": "uint64",
          "name": "subscriptionId",
          "type": "uint64"
        },
        {
          "internalType": "uint32",
          "name": "callbackGasiLimit",
          "type": "uint32"
        },
        {
          "internalType": "uint256",
          "name": "interval",
          "type": "uint256"
        }
      ],
      "stateMutability": "nonpayable",
      "type": "constructor"
    },
    {
      "inputs": [
        {
          "internalType": "address",
          "name": "have",
          "type": "address"
        },
        {
          "internalType": "address",
          "name": "want",
          "type": "address"
        }
      ],
      "name": "OnlyCoordinatorCanFulfill",
      "type": "error"
    },
    {
      "inputs": [],
      "name": "Raffle__LotteryClosed",
      "type": "error"
    },
    {
      "inputs": [],
      "name": "Raffle__NotEnoughETHEntered",
      "type": "error"
    },
    {
      "inputs": [],
      "name": "Raffle__TransferFailed",
      "type": "error"
    },
    {
      "inputs": [
        {
          "internalType": "uint256",
          "name": "currentBalance",
          "type": "uint256"
        },
        {
          "internalType": "uint256",
          "name": "numPlayers",
          "type": "uint256"
        },
        {
          "internalType": "uint256",
          "name": "raffleState",
          "type": "uint256"
        }
      ],
      "name": "Raffle__UpkeepNotNeeded",
      "type": "error"
    },
    {
      "anonymous": false,
      "inputs": [
        {
          "indexed": true,
          "internalType": "address",
          "name": "player",
          "type": "address"
        }
      ],
      "name": "RaffleEnter",
      "type": "event"
    },
    {
      "anonymous": false,
      "inputs": [
        {
          "indexed": true,
          "internalType": "uint256",
          "name": "requestId",
          "type": "uint256"
        }
      ],
      "name": "RequestedRaffleWinner",
      "type": "event"
    },
    {
      "anonymous": false,
      "inputs": [
        {
          "indexed": true,
          "internalType": "address",
          "name": "winner",
          "type": "address"
        }
      ],
      "name": "WinnerPicked",
      "type": "event"
    },
    {
      "inputs": [
        {
          "internalType": "bytes",
          "name": "",
          "type": "bytes"
        }
      ],
      "name": "checkUpkeep",
      "outputs": [
        {
          "internalType": "bool",
          "name": "upkeepNeeded",
          "type": "bool"
        },
        {
          "internalType": "bytes",
          "name": "",
          "type": "bytes"
        }
      ],
      "stateMutability": "nonpayable",
      "type": "function"
    },
    {
      "inputs": [],
      "name": "enterRaffle",
      "outputs": [],
      "stateMutability": "payable",
      "type": "function"
    },
    {
      "inputs": [],
      "name": "getEnteranceFee",
      "outputs": [
        {
          "internalType": "uint256",
          "name": "",
          "type": "uint256"
        }
      ],
      "stateMutability": "view",
      "type": "function"
    },
    {
      "inputs": [],
      "name": "getLatestTimeStamp",
      "outputs": [
        {
          "internalType": "uint256",
          "name": "",
          "type": "uint256"
        }
      ],
      "stateMutability": "view",
      "type": "function"
    },
    {
      "inputs": [],
      "name": "getNumOfPlayers",
      "outputs": [
        {
          "internalType": "uint256",
          "name": "",
          "type": "uint256"
        }
      ],
      "stateMutability": "view",
      "type": "function"
    },
    {
      "inputs": [],
      "name": "getNumWords",
      "outputs": [
        {
          "internalType": "uint256",
          "name": "",
          "type": "uint256"
        }
      ],
      "stateMutability": "pure",
      "type": "function"
    },
    {
      "inputs": [
        {
          "internalType": "uint256",
          "name": "index",
          "type": "uint256"
        }
      ],
      "name": "getPlayer",
      "outputs": [
        {
          "internalType": "address payable",
          "name": "",
          "type": "address"
        }
      ],
      "stateMutability": "view",
      "type": "function"
    },
    {
      "inputs": [],
      "name": "getRaffleState",
      "outputs": [
        {
          "internalType": "enum Raffle.RaffleState",
          "name": "",
          "type": "uint8"
        }
      ],
      "stateMutability": "view",
      "type": "function"
    },
    {
      "inputs": [],
      "name": "getRecenetWinner",
      "outputs": [
        {
          "internalType": "address",
          "name": "",
          "type": "address"
        }
      ],
      "stateMutability": "view",
      "type": "function"
    },
    {
      "inputs": [],
      "name": "getRequestConfirmations",
      "outputs": [
        {
          "internalType": "uint256",
          "name": "",
          "type": "uint256"
        }
      ],
      "stateMutability": "pure",
      "type": "function"
    },
    {
      "inputs": [
        {
          "internalType": "bytes",
          "name": "",
          "type": "bytes"
        }
      ],
      "name": "performUpkeep",
      "outputs": [],
      "stateMutability": "nonpayable",
      "type": "function"
    },
    {
      "inputs": [
        {
          "internalType": "uint256",
          "name": "requestId",
          "type": "uint256"
        },
        {
          "internalType": "uint256[]",
          "name": "randomWords",
          "type": "uint256[]"
        }
      ],
      "name": "rawFulfillRandomWords",
      "outputs": [],
      "stateMutability": "nonpayable",
      "type": "function"
    }
  ],
  "bytecode": "0x6101606040523480156200001257600080fd5b50604051620017c9380380620017c9833981810160405281019062000038919062000294565b858073ffffffffffffffffffffffffffffffffffffffff1660808173ffffffffffffffffffffffffffffffffffffffff1681525050508460a081815250508573ffffffffffffffffffffffffffffffffffffffff1660c08173ffffffffffffffffffffffffffffffffffffffff16815250508360e081815250508267ffffffffffffffff166101008167ffffffffffffffff16815250508163ffffffff166101208163ffffffff16815250506000600160146101000a81548160ff021916908360018111156200010d576200010c62000330565b5b0217905550426002819055508061014081815250505050505050506200035f565b600080fd5b600073ffffffffffffffffffffffffffffffffffffffff82169050919050565b6000620001608262000133565b9050919050565b620001728162000153565b81146200017e57600080fd5b50565b600081519050620001928162000167565b92915050565b6000819050919050565b620001ad8162000198565b8114620001b957600080fd5b50565b600081519050620001cd81620001a2565b92915050565b6000819050919050565b620001e881620001d3565b8114620001f457600080fd5b50565b6000815190506200020881620001dd565b92915050565b600067ffffffffffffffff82169050919050565b6200022d816200020e565b81146200023957600080fd5b50565b6000815190506200024d8162000222565b92915050565b600063ffffffff82169050919050565b6200026e8162000253565b81146200027a57600080fd5b50565b6000815190506200028e8162000263565b92915050565b60008060008060008060c08789031215620002b457620002b36200012e565b5b6000620002c489828a0162000181565b9650506020620002d789828a01620001bc565b9550506040620002ea89828a01620001f7565b9450506060620002fd89828a016200023c565b93505060806200031089828a016200027d565b92505060a06200032389828a01620001bc565b9150509295509295509295565b7f4e487b7100000000000000000000000000000000000000000000000000000000600052602160045260246000fd5b60805160a05160c05160e051610100516101205161014051611401620003c860003960006107830152600061063701526000610614015260006105f3015260006105b701526000818161038901526106f40152600081816102c9015261031d01526114016000f3fe6080604052600436106100a75760003560e01c806353a2c19a1161006457806353a2c19a14610189578063565429de146101b45780635f1b0fd8146101df5780636e04ff0d1461020a578063b7a832af14610248578063e55ae4e814610273576100a7565b8063115cbaf5146100ac5780631fe543e3146100d75780632cfcc53914610100578063320229eb1461010a5780634585e33b14610135578063535bf50f1461015e575b600080fd5b3480156100b857600080fd5b506100c16102b0565b6040516100ce9190610bad565b60405180910390f35b3480156100e357600080fd5b506100fe60048036038101906100f99190610d6b565b6102c7565b005b610108610387565b005b34801561011657600080fd5b5061011f6104f6565b60405161012c9190610dd6565b60405180910390f35b34801561014157600080fd5b5061015c60048036038101906101579190610e4c565b610500565b005b34801561016a57600080fd5b506101736106f0565b6040516101809190610dd6565b60405180910390f35b34801561019557600080fd5b5061019e610718565b6040516101ab9190610dd6565b60405180910390f35b3480156101c057600080fd5b506101c9610727565b6040516101d69190610dd6565b60405180910390f35b3480156101eb57600080fd5b506101f4610733565b6040516102019190610dd6565b60405180910390f35b34801561021657600080fd5b50610231600480360381019061022c9190610f4e565b610740565b60405161023f929190611031565b60405180910390f35b34801561025457600080fd5b5061025d6107ed565b60405161026a91906110a2565b60405180910390f35b34801561027f57600080fd5b5061029a600480360381019061029591906110bd565b610817565b6040516102a7919061110b565b60405180910390f35b6000600160149054906101000a900460ff16905090565b7f000000000000000000000000000000000000000000000000000000000000000073ffffffffffffffffffffffffffffffffffffffff163373ffffffffffffffffffffffffffffffffffffffff161461037957337f00000000000000000000000000000000000000000000000000000000000000006040517f1cf993f4000000000000000000000000000000000000000000000000000000008152600401610370929190611126565b60405180910390fd5b610383828261085e565b5050565b7f00000000000000000000000000000000000000000000000000000000000000003410156103e1576040517fbd4e069500000000000000000000000000000000000000000000000000000000815260040160405180910390fd5b600060018111156103f5576103f4610b36565b5b600160149054906101000a900460ff16600181111561041757610416610b36565b5b1461044e576040517fdae20e8c00000000000000000000000000000000000000000000000000000000815260040160405180910390fd5b6000339080600181540180825580915050600190039060005260206000200160009091909190916101000a81548173ffffffffffffffffffffffffffffffffffffffff021916908373ffffffffffffffffffffffffffffffffffffffff1602179055503373ffffffffffffffffffffffffffffffffffffffff167f0805e1d667bddb8a95f0f09880cf94f403fb596ce79928d9f29b74203ba284d460405160405180910390a2565b6000600254905090565b600061051a60405180602001604052806000815250610740565b509050806105895747600080549050600160149054906101000a900460ff16600181111561054b5761054a610b36565b5b6040517f584327aa0000000000000000000000000000000000000000000000000000000081526004016105809392919061114f565b60405180910390fd5b60018060146101000a81548160ff021916908360018111156105ae576105ad610b36565b5b021790555060007f000000000000000000000000000000000000000000000000000000000000000073ffffffffffffffffffffffffffffffffffffffff16635d3b1d307f00000000000000000000000000000000000000000000000000000000000000007f000000000000000000000000000000000000000000000000000000000000000060037f000000000000000000000000000000000000000000000000000000000000000060016040518663ffffffff1660e01b81526004016106789594939291906111fe565b6020604051808303816000875af1158015610697573d6000803e3d6000fd5b505050506040513d601f19601f820116820180604052508101906106bb9190611266565b9050807fcd6e45c8998311cab7e9d4385596cac867e20a0587194b954fa3a731c93ce78b60405160405180910390a250505050565b60007f0000000000000000000000000000000000000000000000000000000000000000905090565b6000600163ffffffff16905090565b60008080549050905090565b6000600361ffff16905090565b600060606000600160149054906101000a900460ff16600181111561076857610767610b36565b5b6000600181111561077c5761077b610b36565b5b14905060007f0000000000000000000000000000000000000000000000000000000000000000600254426107b091906112c2565b119050600080600080549050119050600080471190508380156107d05750825b80156107d95750815b80156107e25750805b955050505050915091565b6000600160009054906101000a900473ffffffffffffffffffffffffffffffffffffffff16905090565b600080828154811061082c5761082b6112f6565b5b9060005260206000200160009054906101000a900473ffffffffffffffffffffffffffffffffffffffff169050919050565b6000808054905082600081518110610879576108786112f6565b5b602002602001015161088b9190611354565b905060008082815481106108a2576108a16112f6565b5b9060005260206000200160009054906101000a900473ffffffffffffffffffffffffffffffffffffffff16905080600160006101000a81548173ffffffffffffffffffffffffffffffffffffffff021916908373ffffffffffffffffffffffffffffffffffffffff1602179055506000600160146101000a81548160ff0219169083600181111561093657610935610b36565b5b0217905550600067ffffffffffffffff81111561095657610955610c28565b5b6040519080825280602002602001820160405280156109845781602001602082028036833780820191505090505b506000908051906020019061099a929190610a8f565b504260028190555060008173ffffffffffffffffffffffffffffffffffffffff16476040516109c8906113b6565b60006040518083038185875af1925050503d8060008114610a05576040519150601f19603f3d011682016040523d82523d6000602084013e610a0a565b606091505b5050905080610a45576040517fa1d04b3900000000000000000000000000000000000000000000000000000000815260040160405180910390fd5b8173ffffffffffffffffffffffffffffffffffffffff167f5b690ec4a06fe979403046eaeea5b3ce38524683c3001f662c8b5a829632f7df60405160405180910390a25050505050565b828054828255906000526020600020908101928215610b08579160200282015b82811115610b075782518260006101000a81548173ffffffffffffffffffffffffffffffffffffffff021916908373ffffffffffffffffffffffffffffffffffffffff16021790555091602001919060010190610aaf565b5b509050610b159190610b19565b5090565b5b80821115610b32576000816000905550600101610b1a565b5090565b7f4e487b7100000000000000000000000000000000000000000000000000000000600052602160045260246000fd5b60028110610b7657610b75610b36565b5b50565b6000819050610b8782610b65565b919050565b6000610b9782610b79565b9050919050565b610ba781610b8c565b82525050565b6000602082019050610bc26000830184610b9e565b92915050565b6000604051905090565b600080fd5b600080fd5b6000819050919050565b610bef81610bdc565b8114610bfa57600080fd5b50565b600081359050610c0c81610be6565b92915050565b600080fd5b6000601f19601f8301169050919050565b7f4e487b7100000000000000000000000000000000000000000000000000000000600052604160045260246000fd5b610c6082610c17565b810181811067ffffffffffffffff82111715610c7f57610c7e610c28565b5b80604052505050565b6000610c92610bc8565b9050610c9e8282610c57565b919050565b600067ffffffffffffffff821115610cbe57610cbd610c28565b5b602082029050602081019050919050565b600080fd5b6000610ce7610ce284610ca3565b610c88565b90508083825260208201905060208402830185811115610d0a57610d09610ccf565b5b835b81811015610d335780610d1f8882610bfd565b845260208401935050602081019050610d0c565b5050509392505050565b600082601f830112610d5257610d51610c12565b5b8135610d62848260208601610cd4565b91505092915050565b60008060408385031215610d8257610d81610bd2565b5b6000610d9085828601610bfd565b925050602083013567ffffffffffffffff811115610db157610db0610bd7565b5b610dbd85828601610d3d565b9150509250929050565b610dd081610bdc565b82525050565b6000602082019050610deb6000830184610dc7565b92915050565b600080fd5b60008083601f840112610e0c57610e0b610c12565b5b8235905067ffffffffffffffff811115610e2957610e28610df1565b5b602083019150836001820283011115610e4557610e44610ccf565b5b9250929050565b60008060208385031215610e6357610e62610bd2565b5b600083013567ffffffffffffffff811115610e8157610e80610bd7565b5b610e8d85828601610df6565b92509250509250929050565b600080fd5b600067ffffffffffffffff821115610eb957610eb8610c28565b5b610ec282610c17565b9050602081019050919050565b82818337600083830152505050565b6000610ef1610eec84610e9e565b610c88565b905082815260208101848484011115610f0d57610f0c610e99565b5b610f18848285610ecf565b509392505050565b600082601f830112610f3557610f34610c12565b5b8135610f45848260208601610ede565b91505092915050565b600060208284031215610f6457610f63610bd2565b5b600082013567ffffffffffffffff811115610f8257610f81610bd7565b5b610f8e84828501610f20565b91505092915050565b60008115159050919050565b610fac81610f97565b82525050565b600081519050919050565b600082825260208201905092915050565b60005b83811015610fec578082015181840152602081019050610fd1565b60008484015250505050565b600061100382610fb2565b61100d8185610fbd565b935061101d818560208601610fce565b61102681610c17565b840191505092915050565b60006040820190506110466000830185610fa3565b81810360208301526110588184610ff8565b90509392505050565b600073ffffffffffffffffffffffffffffffffffffffff82169050919050565b600061108c82611061565b9050919050565b61109c81611081565b82525050565b60006020820190506110b76000830184611093565b92915050565b6000602082840312156110d3576110d2610bd2565b5b60006110e184828501610bfd565b91505092915050565b60006110f582611061565b9050919050565b611105816110ea565b82525050565b600060208201905061112060008301846110fc565b92915050565b600060408201905061113b6000830185611093565b6111486020830184611093565b9392505050565b60006060820190506111646000830186610dc7565b6111716020830185610dc7565b61117e6040830184610dc7565b949350505050565b6000819050919050565b61119981611186565b82525050565b600067ffffffffffffffff82169050919050565b6111bc8161119f565b82525050565b600061ffff82169050919050565b6111d9816111c2565b82525050565b600063ffffffff82169050919050565b6111f8816111df565b82525050565b600060a0820190506112136000830188611190565b61122060208301876111b3565b61122d60408301866111d0565b61123a60608301856111ef565b61124760808301846111ef565b9695505050505050565b60008151905061126081610be6565b92915050565b60006020828403121561127c5761127b610bd2565b5b600061128a84828501611251565b91505092915050565b7f4e487b7100000000000000000000000000000000000000000000000000000000600052601160045260246000fd5b60006112cd82610bdc565b91506112d883610bdc565b92508282039050818111156112f0576112ef611293565b5b92915050565b7f4e487b7100000000000000000000000000000000000000000000000000000000600052603260045260246000fd5b7f4e487b7100000000000000000000000000000000000000000000000000000000600052601260045260246000fd5b600061135f82610bdc565b915061136a83610bdc565b92508261137a57611379611325565b5b828206905092915050565b600081905092915050565b50565b60006113a0600083611385565b91506113ab82611390565b600082019050919050565b60006113c182611393565b915081905091905056fea2646970667358221220831a75fb13d71b0dcbe68de8a0a60049d456e98568072c24e8584519a9522dfb64736f6c63430008130033",
  "linkReferences": {},
  "deployedLinkReferences": {}
}