{
  "_format": "hh-sol-artifact-1",
  "contractName": "Raffle",
  "sourceName": "contracts/Raffle.sol",
  "abi": [
    {
      "inputs": [
        {
          "internalType": "address",
          "name": "vrfCoordinatorV2",
          "type": "address"
        },
        {
          "internalType": "uint256",
          "name": "enteranceFee",
          "type": "uint256"
        },
        {
          "internalType": "bytes32",
          "name": "gasLane",
          "type": "bytes32"
        },
        {
          "internalType": "uint64",
          "name": "subscriptionId",
          "type": "uint64"
        },
        {
          "internalType": "uint32",
          "name": "callbackGasiLimit",
          "type": "uint32"
        },
        {
          "internalType": "uint256",
          "name": "interval",
          "type": "uint256"
        }
      ],
      "stateMutability": "nonpayable",
      "type": "constructor"
    },
    {
      "inputs": [
        {
          "internalType": "address",
          "name": "have",
          "type": "address"
        },
        {
          "internalType": "address",
          "name": "want",
          "type": "address"
        }
      ],
      "name": "OnlyCoordinatorCanFulfill",
      "type": "error"
    },
    {
      "inputs": [],
      "name": "OnlySimulatedBackend",
      "type": "error"
    },
    {
      "inputs": [],
      "name": "Raffle__LotteryClosed",
      "type": "error"
    },
    {
      "inputs": [],
      "name": "Raffle__NotEnoughETHEntered",
      "type": "error"
    },
    {
      "inputs": [],
      "name": "Raffle__TransferFailed",
      "type": "error"
    },
    {
      "inputs": [
        {
          "internalType": "uint256",
          "name": "currentBalance",
          "type": "uint256"
        },
        {
          "internalType": "uint256",
          "name": "numPlayers",
          "type": "uint256"
        },
        {
          "internalType": "uint256",
          "name": "raffleState",
          "type": "uint256"
        }
      ],
      "name": "Raffle__UpkeepNotNeeded",
      "type": "error"
    },
    {
      "anonymous": false,
      "inputs": [
        {
          "indexed": true,
          "internalType": "address",
          "name": "player",
          "type": "address"
        }
      ],
      "name": "RaffleEnter",
      "type": "event"
    },
    {
      "anonymous": false,
      "inputs": [
        {
          "indexed": true,
          "internalType": "uint256",
          "name": "requestId",
          "type": "uint256"
        }
      ],
      "name": "RequestedRaffleWinner",
      "type": "event"
    },
    {
      "anonymous": false,
      "inputs": [
        {
          "indexed": true,
          "internalType": "address",
          "name": "winner",
          "type": "address"
        }
      ],
      "name": "WinnerPicked",
      "type": "event"
    },
    {
      "inputs": [
        {
          "internalType": "bytes",
          "name": "",
          "type": "bytes"
        }
      ],
      "name": "checkUpkeep",
      "outputs": [
        {
          "internalType": "bool",
          "name": "upkeepNeeded",
          "type": "bool"
        },
        {
          "internalType": "bytes",
          "name": "",
          "type": "bytes"
        }
      ],
      "stateMutability": "nonpayable",
      "type": "function"
    },
    {
      "inputs": [],
      "name": "enterRaffle",
      "outputs": [],
      "stateMutability": "payable",
      "type": "function"
    },
    {
      "inputs": [],
      "name": "getEnteranceFee",
      "outputs": [
        {
          "internalType": "uint256",
          "name": "",
          "type": "uint256"
        }
      ],
      "stateMutability": "view",
      "type": "function"
    },
    {
      "inputs": [],
      "name": "getInterval",
      "outputs": [
        {
          "internalType": "uint256",
          "name": "",
          "type": "uint256"
        }
      ],
      "stateMutability": "view",
      "type": "function"
    },
    {
      "inputs": [],
      "name": "getLatestTimeStamp",
      "outputs": [
        {
          "internalType": "uint256",
          "name": "",
          "type": "uint256"
        }
      ],
      "stateMutability": "view",
      "type": "function"
    },
    {
      "inputs": [],
      "name": "getNumOfPlayers",
      "outputs": [
        {
          "internalType": "uint256",
          "name": "",
          "type": "uint256"
        }
      ],
      "stateMutability": "view",
      "type": "function"
    },
    {
      "inputs": [],
      "name": "getNumWords",
      "outputs": [
        {
          "internalType": "uint256",
          "name": "",
          "type": "uint256"
        }
      ],
      "stateMutability": "pure",
      "type": "function"
    },
    {
      "inputs": [
        {
          "internalType": "uint256",
          "name": "index",
          "type": "uint256"
        }
      ],
      "name": "getPlayer",
      "outputs": [
        {
          "internalType": "address payable",
          "name": "",
          "type": "address"
        }
      ],
      "stateMutability": "view",
      "type": "function"
    },
    {
      "inputs": [],
      "name": "getRaffleState",
      "outputs": [
        {
          "internalType": "enum Raffle.RaffleState",
          "name": "",
          "type": "uint8"
        }
      ],
      "stateMutability": "view",
      "type": "function"
    },
    {
      "inputs": [],
      "name": "getRecenetWinner",
      "outputs": [
        {
          "internalType": "address",
          "name": "",
          "type": "address"
        }
      ],
      "stateMutability": "view",
      "type": "function"
    },
    {
      "inputs": [],
      "name": "getRequestConfirmations",
      "outputs": [
        {
          "internalType": "uint256",
          "name": "",
          "type": "uint256"
        }
      ],
      "stateMutability": "pure",
      "type": "function"
    },
    {
      "inputs": [
        {
          "internalType": "bytes",
          "name": "",
          "type": "bytes"
        }
      ],
      "name": "performUpkeep",
      "outputs": [],
      "stateMutability": "nonpayable",
      "type": "function"
    },
    {
      "inputs": [
        {
          "internalType": "uint256",
          "name": "requestId",
          "type": "uint256"
        },
        {
          "internalType": "uint256[]",
          "name": "randomWords",
          "type": "uint256[]"
        }
      ],
      "name": "rawFulfillRandomWords",
      "outputs": [],
      "stateMutability": "nonpayable",
      "type": "function"
    }
  ],
  "bytecode": "0x6101606040523480156200001257600080fd5b506040516200186e3803806200186e8339818101604052810190620000389190620002a0565b858073ffffffffffffffffffffffffffffffffffffffff1660808173ffffffffffffffffffffffffffffffffffffffff1660601b81525050508460a081815250508573ffffffffffffffffffffffffffffffffffffffff1660c08173ffffffffffffffffffffffffffffffffffffffff1660601b815250508360e081815250508267ffffffffffffffff166101008167ffffffffffffffff1660c01b815250508163ffffffff166101208163ffffffff1660e01b815250506000600160146101000a81548160ff021916908360018111156200011957620001186200033c565b5b0217905550426002819055508061014081815250505050505050506200036b565b600080fd5b600073ffffffffffffffffffffffffffffffffffffffff82169050919050565b60006200016c826200013f565b9050919050565b6200017e816200015f565b81146200018a57600080fd5b50565b6000815190506200019e8162000173565b92915050565b6000819050919050565b620001b981620001a4565b8114620001c557600080fd5b50565b600081519050620001d981620001ae565b92915050565b6000819050919050565b620001f481620001df565b81146200020057600080fd5b50565b6000815190506200021481620001e9565b92915050565b600067ffffffffffffffff82169050919050565b62000239816200021a565b81146200024557600080fd5b50565b60008151905062000259816200022e565b92915050565b600063ffffffff82169050919050565b6200027a816200025f565b81146200028657600080fd5b50565b6000815190506200029a816200026f565b92915050565b60008060008060008060c08789031215620002c057620002bf6200013a565b5b6000620002d089828a016200018d565b9650506020620002e389828a01620001c8565b9550506040620002f689828a0162000203565b94505060606200030989828a0162000248565b93505060806200031c89828a0162000289565b92505060a06200032f89828a01620001c8565b9150509295509295509295565b7f4e487b7100000000000000000000000000000000000000000000000000000000600052602160045260246000fd5b60805160601c60a05160c05160601c60e0516101005160c01c6101205160e01c61014051611487620003e7600039600081816107d801526108460152600061067d0152600061065a01526000610639015260006105fd0152600081816103cf015261074901526000818161030f015261036301526114876000f3fe6080604052600436106100c25760003560e01c806353a2c19a1161007f5780636e04ff0d116100595780636e04ff0d1461022557806391ad27b414610263578063b7a832af1461028e578063e55ae4e8146102b9576100c2565b806353a2c19a146101a4578063565429de146101cf5780635f1b0fd8146101fa576100c2565b8063115cbaf5146100c75780631fe543e3146100f25780632cfcc5391461011b578063320229eb146101255780634585e33b14610150578063535bf50f14610179575b600080fd5b3480156100d357600080fd5b506100dc6102f6565b6040516100e99190610c2a565b60405180910390f35b3480156100fe57600080fd5b5061011960048036038101906101149190610de8565b61030d565b005b6101236103cd565b005b34801561013157600080fd5b5061013a61053c565b6040516101479190610e53565b60405180910390f35b34801561015c57600080fd5b5061017760048036038101906101729190610ec9565b610546565b005b34801561018557600080fd5b5061018e610745565b60405161019b9190610e53565b60405180910390f35b3480156101b057600080fd5b506101b961076d565b6040516101c69190610e53565b60405180910390f35b3480156101db57600080fd5b506101e461077c565b6040516101f19190610e53565b60405180910390f35b34801561020657600080fd5b5061020f610788565b60405161021c9190610e53565b60405180910390f35b34801561023157600080fd5b5061024c60048036038101906102479190610fcb565b610795565b60405161025a9291906110b7565b60405180910390f35b34801561026f57600080fd5b50610278610842565b6040516102859190610e53565b60405180910390f35b34801561029a57600080fd5b506102a361086a565b6040516102b09190611128565b60405180910390f35b3480156102c557600080fd5b506102e060048036038101906102db9190611143565b610894565b6040516102ed9190611191565b60405180910390f35b6000600160149054906101000a900460ff16905090565b7f000000000000000000000000000000000000000000000000000000000000000073ffffffffffffffffffffffffffffffffffffffff163373ffffffffffffffffffffffffffffffffffffffff16146103bf57337f00000000000000000000000000000000000000000000000000000000000000006040517f1cf993f40000000000000000000000000000000000000000000000000000000081526004016103b69291906111ac565b60405180910390fd5b6103c982826108db565b5050565b7f0000000000000000000000000000000000000000000000000000000000000000341015610427576040517fbd4e069500000000000000000000000000000000000000000000000000000000815260040160405180910390fd5b6000600181111561043b5761043a610bb3565b5b600160149054906101000a900460ff16600181111561045d5761045c610bb3565b5b14610494576040517fdae20e8c00000000000000000000000000000000000000000000000000000000815260040160405180910390fd5b6000339080600181540180825580915050600190039060005260206000200160009091909190916101000a81548173ffffffffffffffffffffffffffffffffffffffff021916908373ffffffffffffffffffffffffffffffffffffffff1602179055503373ffffffffffffffffffffffffffffffffffffffff167f0805e1d667bddb8a95f0f09880cf94f403fb596ce79928d9f29b74203ba284d460405160405180910390a2565b6000600254905090565b600061056060405180602001604052806000815250610795565b509050806105cf5747600080549050600160149054906101000a900460ff16600181111561059157610590610bb3565b5b6040517f584327aa0000000000000000000000000000000000000000000000000000000081526004016105c6939291906111d5565b60405180910390fd5b60018060146101000a81548160ff021916908360018111156105f4576105f3610bb3565b5b021790555060007f000000000000000000000000000000000000000000000000000000000000000073ffffffffffffffffffffffffffffffffffffffff16635d3b1d307f00000000000000000000000000000000000000000000000000000000000000007f000000000000000000000000000000000000000000000000000000000000000060037f000000000000000000000000000000000000000000000000000000000000000060016040518663ffffffff1660e01b81526004016106be959493929190611284565b602060405180830381600087803b1580156106d857600080fd5b505af11580156106ec573d6000803e3d6000fd5b505050506040513d601f19601f8201168201806040525081019061071091906112ec565b9050807fcd6e45c8998311cab7e9d4385596cac867e20a0587194b954fa3a731c93ce78b60405160405180910390a250505050565b60007f0000000000000000000000000000000000000000000000000000000000000000905090565b6000600163ffffffff16905090565b60008080549050905090565b6000600361ffff16905090565b600060606000600160149054906101000a900460ff1660018111156107bd576107bc610bb3565b5b600060018111156107d1576107d0610bb3565b5b14905060007f0000000000000000000000000000000000000000000000000000000000000000600254426108059190611348565b119050600080600080549050119050600080471190508380156108255750825b801561082e5750815b80156108375750805b955050505050915091565b60007f0000000000000000000000000000000000000000000000000000000000000000905090565b6000600160009054906101000a900473ffffffffffffffffffffffffffffffffffffffff16905090565b60008082815481106108a9576108a861137c565b5b9060005260206000200160009054906101000a900473ffffffffffffffffffffffffffffffffffffffff169050919050565b60008080549050826000815181106108f6576108f561137c565b5b602002602001015161090891906113da565b9050600080828154811061091f5761091e61137c565b5b9060005260206000200160009054906101000a900473ffffffffffffffffffffffffffffffffffffffff16905080600160006101000a81548173ffffffffffffffffffffffffffffffffffffffff021916908373ffffffffffffffffffffffffffffffffffffffff1602179055506000600160146101000a81548160ff021916908360018111156109b3576109b2610bb3565b5b0217905550600067ffffffffffffffff8111156109d3576109d2610ca5565b5b604051908082528060200260200182016040528015610a015781602001602082028036833780820191505090505b5060009080519060200190610a17929190610b0c565b504260028190555060008173ffffffffffffffffffffffffffffffffffffffff1647604051610a459061143c565b60006040518083038185875af1925050503d8060008114610a82576040519150601f19603f3d011682016040523d82523d6000602084013e610a87565b606091505b5050905080610ac2576040517fa1d04b3900000000000000000000000000000000000000000000000000000000815260040160405180910390fd5b8173ffffffffffffffffffffffffffffffffffffffff167f5b690ec4a06fe979403046eaeea5b3ce38524683c3001f662c8b5a829632f7df60405160405180910390a25050505050565b828054828255906000526020600020908101928215610b85579160200282015b82811115610b845782518260006101000a81548173ffffffffffffffffffffffffffffffffffffffff021916908373ffffffffffffffffffffffffffffffffffffffff16021790555091602001919060010190610b2c565b5b509050610b929190610b96565b5090565b5b80821115610baf576000816000905550600101610b97565b5090565b7f4e487b7100000000000000000000000000000000000000000000000000000000600052602160045260246000fd5b60028110610bf357610bf2610bb3565b5b50565b6000819050610c0482610be2565b919050565b6000610c1482610bf6565b9050919050565b610c2481610c09565b82525050565b6000602082019050610c3f6000830184610c1b565b92915050565b6000604051905090565b600080fd5b600080fd5b6000819050919050565b610c6c81610c59565b8114610c7757600080fd5b50565b600081359050610c8981610c63565b92915050565b600080fd5b6000601f19601f8301169050919050565b7f4e487b7100000000000000000000000000000000000000000000000000000000600052604160045260246000fd5b610cdd82610c94565b810181811067ffffffffffffffff82111715610cfc57610cfb610ca5565b5b80604052505050565b6000610d0f610c45565b9050610d1b8282610cd4565b919050565b600067ffffffffffffffff821115610d3b57610d3a610ca5565b5b602082029050602081019050919050565b600080fd5b6000610d64610d5f84610d20565b610d05565b90508083825260208201905060208402830185811115610d8757610d86610d4c565b5b835b81811015610db05780610d9c8882610c7a565b845260208401935050602081019050610d89565b5050509392505050565b600082601f830112610dcf57610dce610c8f565b5b8135610ddf848260208601610d51565b91505092915050565b60008060408385031215610dff57610dfe610c4f565b5b6000610e0d85828601610c7a565b925050602083013567ffffffffffffffff811115610e2e57610e2d610c54565b5b610e3a85828601610dba565b9150509250929050565b610e4d81610c59565b82525050565b6000602082019050610e686000830184610e44565b92915050565b600080fd5b60008083601f840112610e8957610e88610c8f565b5b8235905067ffffffffffffffff811115610ea657610ea5610e6e565b5b602083019150836001820283011115610ec257610ec1610d4c565b5b9250929050565b60008060208385031215610ee057610edf610c4f565b5b600083013567ffffffffffffffff811115610efe57610efd610c54565b5b610f0a85828601610e73565b92509250509250929050565b600080fd5b600067ffffffffffffffff821115610f3657610f35610ca5565b5b610f3f82610c94565b9050602081019050919050565b82818337600083830152505050565b6000610f6e610f6984610f1b565b610d05565b905082815260208101848484011115610f8a57610f89610f16565b5b610f95848285610f4c565b509392505050565b600082601f830112610fb257610fb1610c8f565b5b8135610fc2848260208601610f5b565b91505092915050565b600060208284031215610fe157610fe0610c4f565b5b600082013567ffffffffffffffff811115610fff57610ffe610c54565b5b61100b84828501610f9d565b91505092915050565b60008115159050919050565b61102981611014565b82525050565b600081519050919050565b600082825260208201905092915050565b60005b8381101561106957808201518184015260208101905061104e565b83811115611078576000848401525b50505050565b60006110898261102f565b611093818561103a565b93506110a381856020860161104b565b6110ac81610c94565b840191505092915050565b60006040820190506110cc6000830185611020565b81810360208301526110de818461107e565b90509392505050565b600073ffffffffffffffffffffffffffffffffffffffff82169050919050565b6000611112826110e7565b9050919050565b61112281611107565b82525050565b600060208201905061113d6000830184611119565b92915050565b60006020828403121561115957611158610c4f565b5b600061116784828501610c7a565b91505092915050565b600061117b826110e7565b9050919050565b61118b81611170565b82525050565b60006020820190506111a66000830184611182565b92915050565b60006040820190506111c16000830185611119565b6111ce6020830184611119565b9392505050565b60006060820190506111ea6000830186610e44565b6111f76020830185610e44565b6112046040830184610e44565b949350505050565b6000819050919050565b61121f8161120c565b82525050565b600067ffffffffffffffff82169050919050565b61124281611225565b82525050565b600061ffff82169050919050565b61125f81611248565b82525050565b600063ffffffff82169050919050565b61127e81611265565b82525050565b600060a0820190506112996000830188611216565b6112a66020830187611239565b6112b36040830186611256565b6112c06060830185611275565b6112cd6080830184611275565b9695505050505050565b6000815190506112e681610c63565b92915050565b60006020828403121561130257611301610c4f565b5b6000611310848285016112d7565b91505092915050565b7f4e487b7100000000000000000000000000000000000000000000000000000000600052601160045260246000fd5b600061135382610c59565b915061135e83610c59565b92508282101561137157611370611319565b5b828203905092915050565b7f4e487b7100000000000000000000000000000000000000000000000000000000600052603260045260246000fd5b7f4e487b7100000000000000000000000000000000000000000000000000000000600052601260045260246000fd5b60006113e582610c59565b91506113f083610c59565b925082611400576113ff6113ab565b5b828206905092915050565b600081905092915050565b50565b600061142660008361140b565b915061143182611416565b600082019050919050565b600061144782611419565b915081905091905056fea2646970667358221220a1bf128f3e32b6ba02bdb191af821af15bd9c743bf7398644a656e2d3797d6bf64736f6c63430008080033",
  "linkReferences": {},
  "deployedLinkReferences": {}
}